{
	"Contracts/Event.sol": {
		"Event": {
			"abi": [
				{
					"anonymous": false,
					"inputs": [
						{
							"indexed": false,
							"internalType": "string",
							"name": "message",
							"type": "string"
						},
						{
							"indexed": false,
							"internalType": "uint256",
							"name": "value",
							"type": "uint256"
						}
					],
					"name": "Log",
					"type": "event"
				},
				{
					"anonymous": false,
					"inputs": [
						{
							"indexed": true,
							"internalType": "address",
							"name": "_from",
							"type": "address"
						},
						{
							"indexed": true,
							"internalType": "address",
							"name": "_to",
							"type": "address"
						},
						{
							"indexed": false,
							"internalType": "string",
							"name": "message",
							"type": "string"
						}
					],
					"name": "Message",
					"type": "event"
				},
				{
					"anonymous": false,
					"inputs": [
						{
							"indexed": true,
							"internalType": "address",
							"name": "sender",
							"type": "address"
						},
						{
							"indexed": false,
							"internalType": "uint256",
							"name": "value",
							"type": "uint256"
						}
					],
					"name": "indexedLog",
					"type": "event"
				},
				{
					"inputs": [],
					"name": "example",
					"outputs": [],
					"stateMutability": "nonpayable",
					"type": "function"
				},
				{
					"inputs": [
						{
							"internalType": "address",
							"name": "_to",
							"type": "address"
						},
						{
							"internalType": "string",
							"name": "message",
							"type": "string"
						}
					],
					"name": "sendMessage",
					"outputs": [],
					"stateMutability": "nonpayable",
					"type": "function"
				}
			],
			"devdoc": {
				"kind": "dev",
				"methods": {},
				"version": 1
			},
			"evm": {
				"assembly": "    /* \"Contracts/Event.sol\":66:511  contract Event {... */\n  mstore(0x40, 0x80)\n  callvalue\n  dup1\n  iszero\n  tag_1\n  jumpi\n  0x00\n  dup1\n  revert\ntag_1:\n  pop\n  dataSize(sub_0)\n  dup1\n  dataOffset(sub_0)\n  0x00\n  codecopy\n  0x00\n  return\nstop\n\nsub_0: assembly {\n        /* \"Contracts/Event.sol\":66:511  contract Event {... */\n      mstore(0x40, 0x80)\n      callvalue\n      dup1\n      iszero\n      tag_1\n      jumpi\n      0x00\n      dup1\n      revert\n    tag_1:\n      pop\n      jumpi(tag_2, lt(calldatasize, 0x04))\n      shr(0xe0, calldataload(0x00))\n      dup1\n      0x54353f2f\n      eq\n      tag_3\n      jumpi\n      dup1\n      0xde6f24bb\n      eq\n      tag_4\n      jumpi\n    tag_2:\n      0x00\n      dup1\n      revert\n        /* \"Contracts/Event.sol\":190:299  function example() external {... */\n    tag_3:\n      tag_5\n      tag_6\n      jump\t// in\n    tag_5:\n      stop\n        /* \"Contracts/Event.sol\":385:509  function sendMessage(address _to, string calldata message) external {... */\n    tag_4:\n      tag_7\n      0x04\n      dup1\n      calldatasize\n      sub\n      dup2\n      add\n      swap1\n      tag_8\n      swap2\n      swap1\n      tag_9\n      jump\t// in\n    tag_8:\n      tag_10\n      jump\t// in\n    tag_7:\n      stop\n        /* \"Contracts/Event.sol\":190:299  function example() external {... */\n    tag_6:\n        /* \"Contracts/Event.sol\":233:251  Log(\"Akhil\", 4444) */\n      0xdd970dd9b5bfe707922155b058a407655cb18288b807e2216442bca8ad83d6b5\n        /* \"Contracts/Event.sol\":246:250  4444 */\n      0x115c\n        /* \"Contracts/Event.sol\":233:251  Log(\"Akhil\", 4444) */\n      mload(0x40)\n      tag_12\n      swap2\n      swap1\n      tag_13\n      jump\t// in\n    tag_12:\n      mload(0x40)\n      dup1\n      swap2\n      sub\n      swap1\n      log1\n        /* \"Contracts/Event.sol\":277:287  msg.sender */\n      caller\n        /* \"Contracts/Event.sol\":266:292  indexedLog(msg.sender, 22) */\n      0xffffffffffffffffffffffffffffffffffffffff\n      and\n      0x498ad7cd4214d8ac7be140823454bc075f6e9c33cf81a1b50218e1307e2ea07f\n        /* \"Contracts/Event.sol\":289:291  22 */\n      0x16\n        /* \"Contracts/Event.sol\":266:292  indexedLog(msg.sender, 22) */\n      mload(0x40)\n      tag_14\n      swap2\n      swap1\n      tag_15\n      jump\t// in\n    tag_14:\n      mload(0x40)\n      dup1\n      swap2\n      sub\n      swap1\n      log2\n        /* \"Contracts/Event.sol\":190:299  function example() external {... */\n      jump\t// out\n        /* \"Contracts/Event.sol\":385:509  function sendMessage(address _to, string calldata message) external {... */\n    tag_10:\n        /* \"Contracts/Event.sol\":489:492  _to */\n      dup3\n        /* \"Contracts/Event.sol\":469:502  Message(msg.sender, _to, message) */\n      0xffffffffffffffffffffffffffffffffffffffff\n      and\n        /* \"Contracts/Event.sol\":477:487  msg.sender */\n      caller\n        /* \"Contracts/Event.sol\":469:502  Message(msg.sender, _to, message) */\n      0xffffffffffffffffffffffffffffffffffffffff\n      and\n      0xb3dbe9e9894ca2c11cb6c80bd0b0bccb9f5b41d612dbeeda0d5474de40b874fe\n        /* \"Contracts/Event.sol\":494:501  message */\n      dup5\n      dup5\n        /* \"Contracts/Event.sol\":469:502  Message(msg.sender, _to, message) */\n      mload(0x40)\n      tag_17\n      swap3\n      swap2\n      swap1\n      tag_18\n      jump\t// in\n    tag_17:\n      mload(0x40)\n      dup1\n      swap2\n      sub\n      swap1\n      log3\n        /* \"Contracts/Event.sol\":385:509  function sendMessage(address _to, string calldata message) external {... */\n      pop\n      pop\n      pop\n      jump\t// out\n        /* \"#utility.yul\":88:205   */\n    tag_20:\n        /* \"#utility.yul\":197:198   */\n      0x00\n        /* \"#utility.yul\":194:195   */\n      dup1\n        /* \"#utility.yul\":187:199   */\n      revert\n        /* \"#utility.yul\":211:328   */\n    tag_21:\n        /* \"#utility.yul\":320:321   */\n      0x00\n        /* \"#utility.yul\":317:318   */\n      dup1\n        /* \"#utility.yul\":310:322   */\n      revert\n        /* \"#utility.yul\":334:460   */\n    tag_22:\n        /* \"#utility.yul\":371:378   */\n      0x00\n        /* \"#utility.yul\":411:453   */\n      0xffffffffffffffffffffffffffffffffffffffff\n        /* \"#utility.yul\":404:409   */\n      dup3\n        /* \"#utility.yul\":400:454   */\n      and\n        /* \"#utility.yul\":389:454   */\n      swap1\n      pop\n        /* \"#utility.yul\":334:460   */\n      swap2\n      swap1\n      pop\n      jump\t// out\n        /* \"#utility.yul\":466:562   */\n    tag_23:\n        /* \"#utility.yul\":503:510   */\n      0x00\n        /* \"#utility.yul\":532:556   */\n      tag_50\n        /* \"#utility.yul\":550:555   */\n      dup3\n        /* \"#utility.yul\":532:556   */\n      tag_22\n      jump\t// in\n    tag_50:\n        /* \"#utility.yul\":521:556   */\n      swap1\n      pop\n        /* \"#utility.yul\":466:562   */\n      swap2\n      swap1\n      pop\n      jump\t// out\n        /* \"#utility.yul\":568:690   */\n    tag_24:\n        /* \"#utility.yul\":641:665   */\n      tag_52\n        /* \"#utility.yul\":659:664   */\n      dup2\n        /* \"#utility.yul\":641:665   */\n      tag_23\n      jump\t// in\n    tag_52:\n        /* \"#utility.yul\":634:639   */\n      dup2\n        /* \"#utility.yul\":631:666   */\n      eq\n        /* \"#utility.yul\":621:684   */\n      tag_53\n      jumpi\n        /* \"#utility.yul\":680:681   */\n      0x00\n        /* \"#utility.yul\":677:678   */\n      dup1\n        /* \"#utility.yul\":670:682   */\n      revert\n        /* \"#utility.yul\":621:684   */\n    tag_53:\n        /* \"#utility.yul\":568:690   */\n      pop\n      jump\t// out\n        /* \"#utility.yul\":696:835   */\n    tag_25:\n        /* \"#utility.yul\":742:747   */\n      0x00\n        /* \"#utility.yul\":780:786   */\n      dup2\n        /* \"#utility.yul\":767:787   */\n      calldataload\n        /* \"#utility.yul\":758:787   */\n      swap1\n      pop\n        /* \"#utility.yul\":796:829   */\n      tag_55\n        /* \"#utility.yul\":823:828   */\n      dup2\n        /* \"#utility.yul\":796:829   */\n      tag_24\n      jump\t// in\n    tag_55:\n        /* \"#utility.yul\":696:835   */\n      swap3\n      swap2\n      pop\n      pop\n      jump\t// out\n        /* \"#utility.yul\":841:958   */\n    tag_26:\n        /* \"#utility.yul\":950:951   */\n      0x00\n        /* \"#utility.yul\":947:948   */\n      dup1\n        /* \"#utility.yul\":940:952   */\n      revert\n        /* \"#utility.yul\":964:1081   */\n    tag_27:\n        /* \"#utility.yul\":1073:1074   */\n      0x00\n        /* \"#utility.yul\":1070:1071   */\n      dup1\n        /* \"#utility.yul\":1063:1075   */\n      revert\n        /* \"#utility.yul\":1087:1204   */\n    tag_28:\n        /* \"#utility.yul\":1196:1197   */\n      0x00\n        /* \"#utility.yul\":1193:1194   */\n      dup1\n        /* \"#utility.yul\":1186:1198   */\n      revert\n        /* \"#utility.yul\":1224:1777   */\n    tag_29:\n        /* \"#utility.yul\":1282:1290   */\n      0x00\n        /* \"#utility.yul\":1292:1298   */\n      dup1\n        /* \"#utility.yul\":1342:1345   */\n      dup4\n        /* \"#utility.yul\":1335:1339   */\n      0x1f\n        /* \"#utility.yul\":1327:1333   */\n      dup5\n        /* \"#utility.yul\":1323:1340   */\n      add\n        /* \"#utility.yul\":1319:1346   */\n      slt\n        /* \"#utility.yul\":1309:1431   */\n      tag_60\n      jumpi\n        /* \"#utility.yul\":1350:1429   */\n      tag_61\n      tag_26\n      jump\t// in\n    tag_61:\n        /* \"#utility.yul\":1309:1431   */\n    tag_60:\n        /* \"#utility.yul\":1463:1469   */\n      dup3\n        /* \"#utility.yul\":1450:1470   */\n      calldataload\n        /* \"#utility.yul\":1440:1470   */\n      swap1\n      pop\n        /* \"#utility.yul\":1493:1511   */\n      0xffffffffffffffff\n        /* \"#utility.yul\":1485:1491   */\n      dup2\n        /* \"#utility.yul\":1482:1512   */\n      gt\n        /* \"#utility.yul\":1479:1596   */\n      iszero\n      tag_62\n      jumpi\n        /* \"#utility.yul\":1515:1594   */\n      tag_63\n      tag_27\n      jump\t// in\n    tag_63:\n        /* \"#utility.yul\":1479:1596   */\n    tag_62:\n        /* \"#utility.yul\":1629:1633   */\n      0x20\n        /* \"#utility.yul\":1621:1627   */\n      dup4\n        /* \"#utility.yul\":1617:1634   */\n      add\n        /* \"#utility.yul\":1605:1634   */\n      swap2\n      pop\n        /* \"#utility.yul\":1683:1686   */\n      dup4\n        /* \"#utility.yul\":1675:1679   */\n      0x01\n        /* \"#utility.yul\":1667:1673   */\n      dup3\n        /* \"#utility.yul\":1663:1680   */\n      mul\n        /* \"#utility.yul\":1653:1661   */\n      dup4\n        /* \"#utility.yul\":1649:1681   */\n      add\n        /* \"#utility.yul\":1646:1687   */\n      gt\n        /* \"#utility.yul\":1643:1771   */\n      iszero\n      tag_64\n      jumpi\n        /* \"#utility.yul\":1690:1769   */\n      tag_65\n      tag_28\n      jump\t// in\n    tag_65:\n        /* \"#utility.yul\":1643:1771   */\n    tag_64:\n        /* \"#utility.yul\":1224:1777   */\n      swap3\n      pop\n      swap3\n      swap1\n      pop\n      jump\t// out\n        /* \"#utility.yul\":1783:2457   */\n    tag_9:\n        /* \"#utility.yul\":1863:1869   */\n      0x00\n        /* \"#utility.yul\":1871:1877   */\n      dup1\n        /* \"#utility.yul\":1879:1885   */\n      0x00\n        /* \"#utility.yul\":1928:1930   */\n      0x40\n        /* \"#utility.yul\":1916:1925   */\n      dup5\n        /* \"#utility.yul\":1907:1914   */\n      dup7\n        /* \"#utility.yul\":1903:1926   */\n      sub\n        /* \"#utility.yul\":1899:1931   */\n      slt\n        /* \"#utility.yul\":1896:2015   */\n      iszero\n      tag_67\n      jumpi\n        /* \"#utility.yul\":1934:2013   */\n      tag_68\n      tag_20\n      jump\t// in\n    tag_68:\n        /* \"#utility.yul\":1896:2015   */\n    tag_67:\n        /* \"#utility.yul\":2054:2055   */\n      0x00\n        /* \"#utility.yul\":2079:2132   */\n      tag_69\n        /* \"#utility.yul\":2124:2131   */\n      dup7\n        /* \"#utility.yul\":2115:2121   */\n      dup3\n        /* \"#utility.yul\":2104:2113   */\n      dup8\n        /* \"#utility.yul\":2100:2122   */\n      add\n        /* \"#utility.yul\":2079:2132   */\n      tag_25\n      jump\t// in\n    tag_69:\n        /* \"#utility.yul\":2069:2132   */\n      swap4\n      pop\n        /* \"#utility.yul\":2025:2142   */\n      pop\n        /* \"#utility.yul\":2209:2211   */\n      0x20\n        /* \"#utility.yul\":2198:2207   */\n      dup5\n        /* \"#utility.yul\":2194:2212   */\n      add\n        /* \"#utility.yul\":2181:2213   */\n      calldataload\n        /* \"#utility.yul\":2240:2258   */\n      0xffffffffffffffff\n        /* \"#utility.yul\":2232:2238   */\n      dup2\n        /* \"#utility.yul\":2229:2259   */\n      gt\n        /* \"#utility.yul\":2226:2343   */\n      iszero\n      tag_70\n      jumpi\n        /* \"#utility.yul\":2262:2341   */\n      tag_71\n      tag_21\n      jump\t// in\n    tag_71:\n        /* \"#utility.yul\":2226:2343   */\n    tag_70:\n        /* \"#utility.yul\":2375:2440   */\n      tag_72\n        /* \"#utility.yul\":2432:2439   */\n      dup7\n        /* \"#utility.yul\":2423:2429   */\n      dup3\n        /* \"#utility.yul\":2412:2421   */\n      dup8\n        /* \"#utility.yul\":2408:2430   */\n      add\n        /* \"#utility.yul\":2375:2440   */\n      tag_29\n      jump\t// in\n    tag_72:\n        /* \"#utility.yul\":2357:2440   */\n      swap3\n      pop\n      swap3\n      pop\n        /* \"#utility.yul\":2152:2450   */\n      pop\n        /* \"#utility.yul\":1783:2457   */\n      swap3\n      pop\n      swap3\n      pop\n      swap3\n      jump\t// out\n        /* \"#utility.yul\":2463:2632   */\n    tag_30:\n        /* \"#utility.yul\":2547:2558   */\n      0x00\n        /* \"#utility.yul\":2581:2587   */\n      dup3\n        /* \"#utility.yul\":2576:2579   */\n      dup3\n        /* \"#utility.yul\":2569:2588   */\n      mstore\n        /* \"#utility.yul\":2621:2625   */\n      0x20\n        /* \"#utility.yul\":2616:2619   */\n      dup3\n        /* \"#utility.yul\":2612:2626   */\n      add\n        /* \"#utility.yul\":2597:2626   */\n      swap1\n      pop\n        /* \"#utility.yul\":2463:2632   */\n      swap3\n      swap2\n      pop\n      pop\n      jump\t// out\n        /* \"#utility.yul\":2638:2793   */\n    tag_31:\n        /* \"#utility.yul\":2778:2785   */\n      0x416b68696c000000000000000000000000000000000000000000000000000000\n        /* \"#utility.yul\":2774:2775   */\n      0x00\n        /* \"#utility.yul\":2766:2772   */\n      dup3\n        /* \"#utility.yul\":2762:2776   */\n      add\n        /* \"#utility.yul\":2755:2786   */\n      mstore\n        /* \"#utility.yul\":2638:2793   */\n      pop\n      jump\t// out\n        /* \"#utility.yul\":2799:3164   */\n    tag_32:\n        /* \"#utility.yul\":2941:2944   */\n      0x00\n        /* \"#utility.yul\":2962:3028   */\n      tag_76\n        /* \"#utility.yul\":3026:3027   */\n      0x05\n        /* \"#utility.yul\":3021:3024   */\n      dup4\n        /* \"#utility.yul\":2962:3028   */\n      tag_30\n      jump\t// in\n    tag_76:\n        /* \"#utility.yul\":2955:3028   */\n      swap2\n      pop\n        /* \"#utility.yul\":3037:3130   */\n      tag_77\n        /* \"#utility.yul\":3126:3129   */\n      dup3\n        /* \"#utility.yul\":3037:3130   */\n      tag_31\n      jump\t// in\n    tag_77:\n        /* \"#utility.yul\":3155:3157   */\n      0x20\n        /* \"#utility.yul\":3150:3153   */\n      dup3\n        /* \"#utility.yul\":3146:3158   */\n      add\n        /* \"#utility.yul\":3139:3158   */\n      swap1\n      pop\n        /* \"#utility.yul\":2799:3164   */\n      swap2\n      swap1\n      pop\n      jump\t// out\n        /* \"#utility.yul\":3170:3258   */\n    tag_33:\n        /* \"#utility.yul\":3218:3225   */\n      0x00\n        /* \"#utility.yul\":3247:3252   */\n      dup2\n        /* \"#utility.yul\":3236:3252   */\n      swap1\n      pop\n        /* \"#utility.yul\":3170:3258   */\n      swap2\n      swap1\n      pop\n      jump\t// out\n        /* \"#utility.yul\":3264:3341   */\n    tag_34:\n        /* \"#utility.yul\":3301:3308   */\n      0x00\n        /* \"#utility.yul\":3330:3335   */\n      dup2\n        /* \"#utility.yul\":3319:3335   */\n      swap1\n      pop\n        /* \"#utility.yul\":3264:3341   */\n      swap2\n      swap1\n      pop\n      jump\t// out\n        /* \"#utility.yul\":3347:3407   */\n    tag_35:\n        /* \"#utility.yul\":3375:3378   */\n      0x00\n        /* \"#utility.yul\":3396:3401   */\n      dup2\n        /* \"#utility.yul\":3389:3401   */\n      swap1\n      pop\n        /* \"#utility.yul\":3347:3407   */\n      swap2\n      swap1\n      pop\n      jump\t// out\n        /* \"#utility.yul\":3413:3577   */\n    tag_36:\n        /* \"#utility.yul\":3474:3483   */\n      0x00\n        /* \"#utility.yul\":3507:3571   */\n      tag_82\n        /* \"#utility.yul\":3525:3570   */\n      tag_83\n        /* \"#utility.yul\":3534:3569   */\n      tag_84\n        /* \"#utility.yul\":3563:3568   */\n      dup5\n        /* \"#utility.yul\":3534:3569   */\n      tag_33\n      jump\t// in\n    tag_84:\n        /* \"#utility.yul\":3525:3570   */\n      tag_35\n      jump\t// in\n    tag_83:\n        /* \"#utility.yul\":3507:3571   */\n      tag_34\n      jump\t// in\n    tag_82:\n        /* \"#utility.yul\":3494:3571   */\n      swap1\n      pop\n        /* \"#utility.yul\":3413:3577   */\n      swap2\n      swap1\n      pop\n      jump\t// out\n        /* \"#utility.yul\":3583:3736   */\n    tag_37:\n        /* \"#utility.yul\":3681:3729   */\n      tag_86\n        /* \"#utility.yul\":3723:3728   */\n      dup2\n        /* \"#utility.yul\":3681:3729   */\n      tag_36\n      jump\t// in\n    tag_86:\n        /* \"#utility.yul\":3676:3679   */\n      dup3\n        /* \"#utility.yul\":3669:3730   */\n      mstore\n        /* \"#utility.yul\":3583:3736   */\n      pop\n      pop\n      jump\t// out\n        /* \"#utility.yul\":3742:4293   */\n    tag_13:\n        /* \"#utility.yul\":3947:3951   */\n      0x00\n        /* \"#utility.yul\":3985:3987   */\n      0x40\n        /* \"#utility.yul\":3974:3983   */\n      dup3\n        /* \"#utility.yul\":3970:3988   */\n      add\n        /* \"#utility.yul\":3962:3988   */\n      swap1\n      pop\n        /* \"#utility.yul\":4034:4043   */\n      dup2\n        /* \"#utility.yul\":4028:4032   */\n      dup2\n        /* \"#utility.yul\":4024:4044   */\n      sub\n        /* \"#utility.yul\":4020:4021   */\n      0x00\n        /* \"#utility.yul\":4009:4018   */\n      dup4\n        /* \"#utility.yul\":4005:4022   */\n      add\n        /* \"#utility.yul\":3998:4045   */\n      mstore\n        /* \"#utility.yul\":4062:4193   */\n      tag_88\n        /* \"#utility.yul\":4188:4192   */\n      dup2\n        /* \"#utility.yul\":4062:4193   */\n      tag_32\n      jump\t// in\n    tag_88:\n        /* \"#utility.yul\":4054:4193   */\n      swap1\n      pop\n        /* \"#utility.yul\":4203:4286   */\n      tag_89\n        /* \"#utility.yul\":4282:4284   */\n      0x20\n        /* \"#utility.yul\":4271:4280   */\n      dup4\n        /* \"#utility.yul\":4267:4285   */\n      add\n        /* \"#utility.yul\":4258:4264   */\n      dup5\n        /* \"#utility.yul\":4203:4286   */\n      tag_37\n      jump\t// in\n    tag_89:\n        /* \"#utility.yul\":3742:4293   */\n      swap3\n      swap2\n      pop\n      pop\n      jump\t// out\n        /* \"#utility.yul\":4299:4385   */\n    tag_38:\n        /* \"#utility.yul\":4345:4352   */\n      0x00\n        /* \"#utility.yul\":4374:4379   */\n      dup2\n        /* \"#utility.yul\":4363:4379   */\n      swap1\n      pop\n        /* \"#utility.yul\":4299:4385   */\n      swap2\n      swap1\n      pop\n      jump\t// out\n        /* \"#utility.yul\":4391:4551   */\n    tag_39:\n        /* \"#utility.yul\":4450:4459   */\n      0x00\n        /* \"#utility.yul\":4483:4545   */\n      tag_92\n        /* \"#utility.yul\":4501:4544   */\n      tag_93\n        /* \"#utility.yul\":4510:4543   */\n      tag_94\n        /* \"#utility.yul\":4537:4542   */\n      dup5\n        /* \"#utility.yul\":4510:4543   */\n      tag_38\n      jump\t// in\n    tag_94:\n        /* \"#utility.yul\":4501:4544   */\n      tag_35\n      jump\t// in\n    tag_93:\n        /* \"#utility.yul\":4483:4545   */\n      tag_34\n      jump\t// in\n    tag_92:\n        /* \"#utility.yul\":4470:4545   */\n      swap1\n      pop\n        /* \"#utility.yul\":4391:4551   */\n      swap2\n      swap1\n      pop\n      jump\t// out\n        /* \"#utility.yul\":4557:4706   */\n    tag_40:\n        /* \"#utility.yul\":4653:4699   */\n      tag_96\n        /* \"#utility.yul\":4693:4698   */\n      dup2\n        /* \"#utility.yul\":4653:4699   */\n      tag_39\n      jump\t// in\n    tag_96:\n        /* \"#utility.yul\":4648:4651   */\n      dup3\n        /* \"#utility.yul\":4641:4700   */\n      mstore\n        /* \"#utility.yul\":4557:4706   */\n      pop\n      pop\n      jump\t// out\n        /* \"#utility.yul\":4712:4952   */\n    tag_15:\n        /* \"#utility.yul\":4814:4818   */\n      0x00\n        /* \"#utility.yul\":4852:4854   */\n      0x20\n        /* \"#utility.yul\":4841:4850   */\n      dup3\n        /* \"#utility.yul\":4837:4855   */\n      add\n        /* \"#utility.yul\":4829:4855   */\n      swap1\n      pop\n        /* \"#utility.yul\":4865:4945   */\n      tag_98\n        /* \"#utility.yul\":4942:4943   */\n      0x00\n        /* \"#utility.yul\":4931:4940   */\n      dup4\n        /* \"#utility.yul\":4927:4944   */\n      add\n        /* \"#utility.yul\":4918:4924   */\n      dup5\n        /* \"#utility.yul\":4865:4945   */\n      tag_40\n      jump\t// in\n    tag_98:\n        /* \"#utility.yul\":4712:4952   */\n      swap3\n      swap2\n      pop\n      pop\n      jump\t// out\n        /* \"#utility.yul\":4958:5104   */\n    tag_41:\n        /* \"#utility.yul\":5055:5061   */\n      dup3\n        /* \"#utility.yul\":5050:5053   */\n      dup2\n        /* \"#utility.yul\":5045:5048   */\n      dup4\n        /* \"#utility.yul\":5032:5062   */\n      calldatacopy\n        /* \"#utility.yul\":5096:5097   */\n      0x00\n        /* \"#utility.yul\":5087:5093   */\n      dup4\n        /* \"#utility.yul\":5082:5085   */\n      dup4\n        /* \"#utility.yul\":5078:5094   */\n      add\n        /* \"#utility.yul\":5071:5098   */\n      mstore\n        /* \"#utility.yul\":4958:5104   */\n      pop\n      pop\n      pop\n      jump\t// out\n        /* \"#utility.yul\":5110:5212   */\n    tag_42:\n        /* \"#utility.yul\":5151:5157   */\n      0x00\n        /* \"#utility.yul\":5202:5204   */\n      0x1f\n        /* \"#utility.yul\":5198:5205   */\n      not\n        /* \"#utility.yul\":5193:5195   */\n      0x1f\n        /* \"#utility.yul\":5186:5191   */\n      dup4\n        /* \"#utility.yul\":5182:5196   */\n      add\n        /* \"#utility.yul\":5178:5206   */\n      and\n        /* \"#utility.yul\":5168:5206   */\n      swap1\n      pop\n        /* \"#utility.yul\":5110:5212   */\n      swap2\n      swap1\n      pop\n      jump\t// out\n        /* \"#utility.yul\":5242:5559   */\n    tag_43:\n        /* \"#utility.yul\":5340:5343   */\n      0x00\n        /* \"#utility.yul\":5361:5432   */\n      tag_102\n        /* \"#utility.yul\":5425:5431   */\n      dup4\n        /* \"#utility.yul\":5420:5423   */\n      dup6\n        /* \"#utility.yul\":5361:5432   */\n      tag_30\n      jump\t// in\n    tag_102:\n        /* \"#utility.yul\":5354:5432   */\n      swap4\n      pop\n        /* \"#utility.yul\":5442:5498   */\n      tag_103\n        /* \"#utility.yul\":5491:5497   */\n      dup4\n        /* \"#utility.yul\":5486:5489   */\n      dup6\n        /* \"#utility.yul\":5479:5484   */\n      dup5\n        /* \"#utility.yul\":5442:5498   */\n      tag_41\n      jump\t// in\n    tag_103:\n        /* \"#utility.yul\":5523:5552   */\n      tag_104\n        /* \"#utility.yul\":5545:5551   */\n      dup4\n        /* \"#utility.yul\":5523:5552   */\n      tag_42\n      jump\t// in\n    tag_104:\n        /* \"#utility.yul\":5518:5521   */\n      dup5\n        /* \"#utility.yul\":5514:5553   */\n      add\n        /* \"#utility.yul\":5507:5553   */\n      swap1\n      pop\n        /* \"#utility.yul\":5242:5559   */\n      swap4\n      swap3\n      pop\n      pop\n      pop\n      jump\t// out\n        /* \"#utility.yul\":5565:5898   */\n    tag_18:\n        /* \"#utility.yul\":5688:5692   */\n      0x00\n        /* \"#utility.yul\":5726:5728   */\n      0x20\n        /* \"#utility.yul\":5715:5724   */\n      dup3\n        /* \"#utility.yul\":5711:5729   */\n      add\n        /* \"#utility.yul\":5703:5729   */\n      swap1\n      pop\n        /* \"#utility.yul\":5775:5784   */\n      dup2\n        /* \"#utility.yul\":5769:5773   */\n      dup2\n        /* \"#utility.yul\":5765:5785   */\n      sub\n        /* \"#utility.yul\":5761:5762   */\n      0x00\n        /* \"#utility.yul\":5750:5759   */\n      dup4\n        /* \"#utility.yul\":5746:5763   */\n      add\n        /* \"#utility.yul\":5739:5786   */\n      mstore\n        /* \"#utility.yul\":5803:5891   */\n      tag_106\n        /* \"#utility.yul\":5886:5890   */\n      dup2\n        /* \"#utility.yul\":5877:5883   */\n      dup5\n        /* \"#utility.yul\":5869:5875   */\n      dup7\n        /* \"#utility.yul\":5803:5891   */\n      tag_43\n      jump\t// in\n    tag_106:\n        /* \"#utility.yul\":5795:5891   */\n      swap1\n      pop\n        /* \"#utility.yul\":5565:5898   */\n      swap4\n      swap3\n      pop\n      pop\n      pop\n      jump\t// out\n\n    auxdata: 0xa2646970667358221220570a9e2acd91f5dc71dfe0cb903c0be71447d96dc2790824b94725ca54910c1064736f6c63430008120033\n}\n",
				"bytecode": {
					"linkReferences": {},
					"object": "608060405234801561001057600080fd5b5061045b806100206000396000f3fe608060405234801561001057600080fd5b50600436106100365760003560e01c806354353f2f1461003b578063de6f24bb14610045575b600080fd5b610043610061565b005b61005f600480360381019061005a9190610224565b6100eb565b005b7fdd970dd9b5bfe707922155b058a407655cb18288b807e2216442bca8ad83d6b561115c6040516100929190610330565b60405180910390a13373ffffffffffffffffffffffffffffffffffffffff167f498ad7cd4214d8ac7be140823454bc075f6e9c33cf81a1b50218e1307e2ea07f60166040516100e19190610399565b60405180910390a2565b8273ffffffffffffffffffffffffffffffffffffffff163373ffffffffffffffffffffffffffffffffffffffff167fb3dbe9e9894ca2c11cb6c80bd0b0bccb9f5b41d612dbeeda0d5474de40b874fe848460405161014a929190610401565b60405180910390a3505050565b600080fd5b600080fd5b600073ffffffffffffffffffffffffffffffffffffffff82169050919050565b600061018c82610161565b9050919050565b61019c81610181565b81146101a757600080fd5b50565b6000813590506101b981610193565b92915050565b600080fd5b600080fd5b600080fd5b60008083601f8401126101e4576101e36101bf565b5b8235905067ffffffffffffffff811115610201576102006101c4565b5b60208301915083600182028301111561021d5761021c6101c9565b5b9250929050565b60008060006040848603121561023d5761023c610157565b5b600061024b868287016101aa565b935050602084013567ffffffffffffffff81111561026c5761026b61015c565b5b610278868287016101ce565b92509250509250925092565b600082825260208201905092915050565b7f416b68696c000000000000000000000000000000000000000000000000000000600082015250565b60006102cb600583610284565b91506102d682610295565b602082019050919050565b6000819050919050565b6000819050919050565b6000819050919050565b600061031a610315610310846102e1565b6102f5565b6102eb565b9050919050565b61032a816102ff565b82525050565b60006040820190508181036000830152610349816102be565b90506103586020830184610321565b92915050565b6000819050919050565b600061038361037e6103798461035e565b6102f5565b6102eb565b9050919050565b61039381610368565b82525050565b60006020820190506103ae600083018461038a565b92915050565b82818337600083830152505050565b6000601f19601f8301169050919050565b60006103e08385610284565b93506103ed8385846103b4565b6103f6836103c3565b840190509392505050565b6000602082019050818103600083015261041c8184866103d4565b9050939250505056fea2646970667358221220570a9e2acd91f5dc71dfe0cb903c0be71447d96dc2790824b94725ca54910c1064736f6c63430008120033",
					"opcodes": "PUSH1 0x80 PUSH1 0x40 MSTORE CALLVALUE DUP1 ISZERO PUSH2 0x10 JUMPI PUSH1 0x0 DUP1 REVERT JUMPDEST POP PUSH2 0x45B DUP1 PUSH2 0x20 PUSH1 0x0 CODECOPY PUSH1 0x0 RETURN INVALID PUSH1 0x80 PUSH1 0x40 MSTORE CALLVALUE DUP1 ISZERO PUSH2 0x10 JUMPI PUSH1 0x0 DUP1 REVERT JUMPDEST POP PUSH1 0x4 CALLDATASIZE LT PUSH2 0x36 JUMPI PUSH1 0x0 CALLDATALOAD PUSH1 0xE0 SHR DUP1 PUSH4 0x54353F2F EQ PUSH2 0x3B JUMPI DUP1 PUSH4 0xDE6F24BB EQ PUSH2 0x45 JUMPI JUMPDEST PUSH1 0x0 DUP1 REVERT JUMPDEST PUSH2 0x43 PUSH2 0x61 JUMP JUMPDEST STOP JUMPDEST PUSH2 0x5F PUSH1 0x4 DUP1 CALLDATASIZE SUB DUP2 ADD SWAP1 PUSH2 0x5A SWAP2 SWAP1 PUSH2 0x224 JUMP JUMPDEST PUSH2 0xEB JUMP JUMPDEST STOP JUMPDEST PUSH32 0xDD970DD9B5BFE707922155B058A407655CB18288B807E2216442BCA8AD83D6B5 PUSH2 0x115C PUSH1 0x40 MLOAD PUSH2 0x92 SWAP2 SWAP1 PUSH2 0x330 JUMP JUMPDEST PUSH1 0x40 MLOAD DUP1 SWAP2 SUB SWAP1 LOG1 CALLER PUSH20 0xFFFFFFFFFFFFFFFFFFFFFFFFFFFFFFFFFFFFFFFF AND PUSH32 0x498AD7CD4214D8AC7BE140823454BC075F6E9C33CF81A1B50218E1307E2EA07F PUSH1 0x16 PUSH1 0x40 MLOAD PUSH2 0xE1 SWAP2 SWAP1 PUSH2 0x399 JUMP JUMPDEST PUSH1 0x40 MLOAD DUP1 SWAP2 SUB SWAP1 LOG2 JUMP JUMPDEST DUP3 PUSH20 0xFFFFFFFFFFFFFFFFFFFFFFFFFFFFFFFFFFFFFFFF AND CALLER PUSH20 0xFFFFFFFFFFFFFFFFFFFFFFFFFFFFFFFFFFFFFFFF AND PUSH32 0xB3DBE9E9894CA2C11CB6C80BD0B0BCCB9F5B41D612DBEEDA0D5474DE40B874FE DUP5 DUP5 PUSH1 0x40 MLOAD PUSH2 0x14A SWAP3 SWAP2 SWAP1 PUSH2 0x401 JUMP JUMPDEST PUSH1 0x40 MLOAD DUP1 SWAP2 SUB SWAP1 LOG3 POP POP POP JUMP JUMPDEST PUSH1 0x0 DUP1 REVERT JUMPDEST PUSH1 0x0 DUP1 REVERT JUMPDEST PUSH1 0x0 PUSH20 0xFFFFFFFFFFFFFFFFFFFFFFFFFFFFFFFFFFFFFFFF DUP3 AND SWAP1 POP SWAP2 SWAP1 POP JUMP JUMPDEST PUSH1 0x0 PUSH2 0x18C DUP3 PUSH2 0x161 JUMP JUMPDEST SWAP1 POP SWAP2 SWAP1 POP JUMP JUMPDEST PUSH2 0x19C DUP2 PUSH2 0x181 JUMP JUMPDEST DUP2 EQ PUSH2 0x1A7 JUMPI PUSH1 0x0 DUP1 REVERT JUMPDEST POP JUMP JUMPDEST PUSH1 0x0 DUP2 CALLDATALOAD SWAP1 POP PUSH2 0x1B9 DUP2 PUSH2 0x193 JUMP JUMPDEST SWAP3 SWAP2 POP POP JUMP JUMPDEST PUSH1 0x0 DUP1 REVERT JUMPDEST PUSH1 0x0 DUP1 REVERT JUMPDEST PUSH1 0x0 DUP1 REVERT JUMPDEST PUSH1 0x0 DUP1 DUP4 PUSH1 0x1F DUP5 ADD SLT PUSH2 0x1E4 JUMPI PUSH2 0x1E3 PUSH2 0x1BF JUMP JUMPDEST JUMPDEST DUP3 CALLDATALOAD SWAP1 POP PUSH8 0xFFFFFFFFFFFFFFFF DUP2 GT ISZERO PUSH2 0x201 JUMPI PUSH2 0x200 PUSH2 0x1C4 JUMP JUMPDEST JUMPDEST PUSH1 0x20 DUP4 ADD SWAP2 POP DUP4 PUSH1 0x1 DUP3 MUL DUP4 ADD GT ISZERO PUSH2 0x21D JUMPI PUSH2 0x21C PUSH2 0x1C9 JUMP JUMPDEST JUMPDEST SWAP3 POP SWAP3 SWAP1 POP JUMP JUMPDEST PUSH1 0x0 DUP1 PUSH1 0x0 PUSH1 0x40 DUP5 DUP7 SUB SLT ISZERO PUSH2 0x23D JUMPI PUSH2 0x23C PUSH2 0x157 JUMP JUMPDEST JUMPDEST PUSH1 0x0 PUSH2 0x24B DUP7 DUP3 DUP8 ADD PUSH2 0x1AA JUMP JUMPDEST SWAP4 POP POP PUSH1 0x20 DUP5 ADD CALLDATALOAD PUSH8 0xFFFFFFFFFFFFFFFF DUP2 GT ISZERO PUSH2 0x26C JUMPI PUSH2 0x26B PUSH2 0x15C JUMP JUMPDEST JUMPDEST PUSH2 0x278 DUP7 DUP3 DUP8 ADD PUSH2 0x1CE JUMP JUMPDEST SWAP3 POP SWAP3 POP POP SWAP3 POP SWAP3 POP SWAP3 JUMP JUMPDEST PUSH1 0x0 DUP3 DUP3 MSTORE PUSH1 0x20 DUP3 ADD SWAP1 POP SWAP3 SWAP2 POP POP JUMP JUMPDEST PUSH32 0x416B68696C000000000000000000000000000000000000000000000000000000 PUSH1 0x0 DUP3 ADD MSTORE POP JUMP JUMPDEST PUSH1 0x0 PUSH2 0x2CB PUSH1 0x5 DUP4 PUSH2 0x284 JUMP JUMPDEST SWAP2 POP PUSH2 0x2D6 DUP3 PUSH2 0x295 JUMP JUMPDEST PUSH1 0x20 DUP3 ADD SWAP1 POP SWAP2 SWAP1 POP JUMP JUMPDEST PUSH1 0x0 DUP2 SWAP1 POP SWAP2 SWAP1 POP JUMP JUMPDEST PUSH1 0x0 DUP2 SWAP1 POP SWAP2 SWAP1 POP JUMP JUMPDEST PUSH1 0x0 DUP2 SWAP1 POP SWAP2 SWAP1 POP JUMP JUMPDEST PUSH1 0x0 PUSH2 0x31A PUSH2 0x315 PUSH2 0x310 DUP5 PUSH2 0x2E1 JUMP JUMPDEST PUSH2 0x2F5 JUMP JUMPDEST PUSH2 0x2EB JUMP JUMPDEST SWAP1 POP SWAP2 SWAP1 POP JUMP JUMPDEST PUSH2 0x32A DUP2 PUSH2 0x2FF JUMP JUMPDEST DUP3 MSTORE POP POP JUMP JUMPDEST PUSH1 0x0 PUSH1 0x40 DUP3 ADD SWAP1 POP DUP2 DUP2 SUB PUSH1 0x0 DUP4 ADD MSTORE PUSH2 0x349 DUP2 PUSH2 0x2BE JUMP JUMPDEST SWAP1 POP PUSH2 0x358 PUSH1 0x20 DUP4 ADD DUP5 PUSH2 0x321 JUMP JUMPDEST SWAP3 SWAP2 POP POP JUMP JUMPDEST PUSH1 0x0 DUP2 SWAP1 POP SWAP2 SWAP1 POP JUMP JUMPDEST PUSH1 0x0 PUSH2 0x383 PUSH2 0x37E PUSH2 0x379 DUP5 PUSH2 0x35E JUMP JUMPDEST PUSH2 0x2F5 JUMP JUMPDEST PUSH2 0x2EB JUMP JUMPDEST SWAP1 POP SWAP2 SWAP1 POP JUMP JUMPDEST PUSH2 0x393 DUP2 PUSH2 0x368 JUMP JUMPDEST DUP3 MSTORE POP POP JUMP JUMPDEST PUSH1 0x0 PUSH1 0x20 DUP3 ADD SWAP1 POP PUSH2 0x3AE PUSH1 0x0 DUP4 ADD DUP5 PUSH2 0x38A JUMP JUMPDEST SWAP3 SWAP2 POP POP JUMP JUMPDEST DUP3 DUP2 DUP4 CALLDATACOPY PUSH1 0x0 DUP4 DUP4 ADD MSTORE POP POP POP JUMP JUMPDEST PUSH1 0x0 PUSH1 0x1F NOT PUSH1 0x1F DUP4 ADD AND SWAP1 POP SWAP2 SWAP1 POP JUMP JUMPDEST PUSH1 0x0 PUSH2 0x3E0 DUP4 DUP6 PUSH2 0x284 JUMP JUMPDEST SWAP4 POP PUSH2 0x3ED DUP4 DUP6 DUP5 PUSH2 0x3B4 JUMP JUMPDEST PUSH2 0x3F6 DUP4 PUSH2 0x3C3 JUMP JUMPDEST DUP5 ADD SWAP1 POP SWAP4 SWAP3 POP POP POP JUMP JUMPDEST PUSH1 0x0 PUSH1 0x20 DUP3 ADD SWAP1 POP DUP2 DUP2 SUB PUSH1 0x0 DUP4 ADD MSTORE PUSH2 0x41C DUP2 DUP5 DUP7 PUSH2 0x3D4 JUMP JUMPDEST SWAP1 POP SWAP4 SWAP3 POP POP POP JUMP INVALID LOG2 PUSH5 0x6970667358 0x22 SLT KECCAK256 JUMPI EXP SWAP15 0x2A 0xCD SWAP2 CREATE2 0xDC PUSH18 0xDFE0CB903C0BE71447D96DC2790824B94725 0xCA SLOAD SWAP2 0xC LT PUSH5 0x736F6C6343 STOP ADDMOD SLT STOP CALLER "
				},
				"gasEstimates": {
					"creation": {
						"codeDepositCost": "223000",
						"executionCost": "263",
						"totalCost": "223263"
					},
					"external": {
						"example()": "infinite",
						"sendMessage(address,string)": "infinite"
					}
				},
				"methodIdentifiers": {
					"example()": "54353f2f",
					"sendMessage(address,string)": "de6f24bb"
				}
			},
			"storageLayout": {
				"storage": [],
				"types": null
			},
			"userdoc": {
				"kind": "user",
				"methods": {},
				"version": 1
			}
		}
	}
}